:100000000C942A000C9447000C9447000C94470071
:100010000C9447000C9447000C9447000C94470044
:100020000C9447000C9447000C9447000C94470034
:100030000C9447000C9447000C9447000C94470024
:100040000C9447000C9447000C9447000C94470014
:100050000C94470011241FBECFE5D8E0DEBFCDBF12
:1000600010E0A0E6B0E0E6E4FEE002C005900D92EC
:10007000A039B107D9F720E0A0E9B0E001C01D9296
:10008000AC39B207E1F70E948C010C9421070C9463
:10009000000084E086BF8DEF80B9089584EA86BFB2
:1000A00006B607FEFDCF81B1887F883019F0803118
:1000B00019F0089580E0089580E0089584E986BFEE
:1000C00006B604FCFDCF089583B984E886BF06B662
:1000D00007FEFDCF0895CF93C82F0E94640091B111
:1000E000987F8C2F8170C0FF04C0903431F0892F2D
:1000F00005C0983119F0892F01C080E0CF91089593
:100100000E94640081B1887F883209F480E00895FC
:100110001F93CF93DF93182FD62FC42F0E944E002A
:10012000812F880F0E946B008D2F0E9480008C2FE2
:100130000E9480000E945E00DF91CF911F91089580
:10014000CF9380919100882371F060E080E00E945D
:10015000E100C82F60E080E00E94E100C07F82954E
:100160008F708C2B04C060E080E00E94E100CF9192
:100170000895CF93DF93C82FD62F411105C008C033
:1001800086E08A95F1F700C00E94A0008823C4F39E
:10019000D998DD2311F0DA9A01C0DA988AB3806F1A
:1001A0008ABB8BB39C2F9F6089238BBB8BB3C07F93
:1001B000C82BCBBBD89A0000D8980000DF91CF9114
:1001C0000895CF93C82F611102C005C000000E949E
:1001D000A0008823DCF3D99ACC2311F0DA9A01C06D
:1001E000DA988AB38F708ABBD89A000089B3D898FE
:1001F0000000CF910895CF93C82F8091910088235C
:1002000069F041E060E08C2F0E94B90040E060E0BE
:100210008C2F8295807F0E94B90005C041E060E08C
:100220008C2F0E94B900CF910895CF93C82F809151
:100230009100882369F041E061E08C2F0E94B900B1
:1002400040E061E08C2F8295807F0E94B90006C05B
:100250004091900061E08C2F0E94B900CF910895E9
:100260000E94150180E090E0089590E4699F800D60
:10027000112480680E94FB00089581E00E94FB0029
:10028000089560E070E080E391E00E94B402089578
:100290001092910010929000D09AD19AD29A85EA49
:1002A0009EE00197F1F700C0000080E30E94FB0090
:1002B00080E094E00197F1F700C0000080E30E9425
:1002C000FB0091E29A95F1F7000080E30E94FB00A9
:1002D00089EF90E00197F1F700C0000080E20E94F2
:1002E000FB0089EF90E00197F1F700C0000081E08A
:1002F000809391008093900088E20E94FB0088E048
:100300000E94FB008CE00E94FB0086E00E94FB0044
:1003100081E00E94FB0008950E9449000E94FA01BA
:100320000E942D020E9448010E9441010E943A024F
:10033000893621F00E943A028936E1F786E690E09C
:100340000E943E020E943D0186E690E09F938F93BB
:100350000E94FF020F900F90C3E8D0E00F2EF7E746
:10036000AF2EF0E0BF2EF02D0F2EFCE6CF2EF0E0EA
:10037000DF2EF02D0E943A028337E1F781E00E94E0
:100380005402182F092F0E943A028E3251F583E051
:100390000E945402F82EE92E0E943A028E3249F051
:1003A0000E943D01DF92CF920E94FF020F900F90BA
:1003B000E1CF60E080E00E9435016F2D7E2D812F1E
:1003C0000E941302EF92FF920F931F93BF92AF927E
:1003D0000E94FF020F900F900F900F900F900F90C0
:1003E000C9CF0E943D01DF93CF930E94FF020F907F
:1003F0000F90C0CF0E94490081EE94E00197F1F781
:1004000000C0000049E76EEF80E40E94880041E0F0
:1004100060E080E40E94880081EE94E00197F1F7AB
:1004200000C0000008950F931F93CF93C82F8B0136
:100430001F70682F660F660F685F402F80E40E9470
:100440008800CC0FCC0F69E06C0F412F80E40E9434
:100450008800CF911F910F91089510BC8CE089B94D
:10046000599A88E18AB986E880BD08955D9BFECFE0
:100470008CB908955F9BFECF8CB108950F931F93A5
:10048000CF93FC018081882359F08F01C0E0CF5FBA
:100490000E943602F801EC0FF11D80818111F7CF27
:1004A000CF911F910F910895CF92DF92EF92FF921B
:1004B0000F931F93CF93DF9300D000D000D0CDB720
:1004C000DEB7C82ED12C1C141D0474F48E010F5FEE
:1004D0001F4F7801E80EF11C0E943A02F801819347
:1004E0008F01EE15FF05C1F7E1E0F0E0EC0FFD1F15
:1004F000EC0DFD1D1082CE0101960E948E02269603
:100500000FB6F894DEBF0FBECDBFDF91CF911F9124
:100510000F91FF90EF90DF90CF900895FC01882716
:100520009927E89421912032E9F3293010F02E30F8
:10053000C8F32B3241F02D3239F4689404C00E9484
:10054000AC02820F911D219120532A30C0F31EF47A
:10055000909581959F4F08957AE0979F902D879F62
:10056000802D910D112408950F931F93CF93DF9346
:10057000009731F46115710519F480E090E03AC0FC
:100580008B01EC016EE070E081E090E00E94F604E7
:10059000FC01892B91F380E883830115110571F02B
:1005A0001387028781E88383809192009091930062
:1005B000892B21F4F0939300E09392002097C9F0E7
:1005C000D187C087838182608383809194009091DA
:1005D0009500892B71F4F0939500E093940080913D
:1005E000960090919700892B21F4F0939700E09367
:1005F0009600CF01DF91CF911F910F910895A0E058
:10060000B0E0E5E0F3E00C94FA06AE014B5F5F4F1B
:10061000FA0161917191AF018091940090919500E0
:100620000E941503E2E00C941607ABE0B0E0EBE1AA
:10063000F3E00C94EA066C017B018A01FC0117824D
:100640001682838181FFCCC1CE0101963C01F60167
:100650009381F70193FD859193FF81917F01882319
:1006600009F4BAC1853239F493FD859193FF8191E4
:100670007F01853229F4B60190E00E945006E7CF51
:10068000912C212C312CFFE1F315D8F08B3279F02D
:1006900038F4803279F08332A1F4232D20611DC01B
:1006A0008D3261F0803369F4232D216016C0832DD3
:1006B0008260382EE32DE4603E2E2AC0F32DF860D0
:1006C0001DC037FC2DC020ED280F2A3040F08E329F
:1006D000B9F436FC81C1232D2064322E19C036FEB8
:1006E00006C08AE0989E200D1124922E11C0EAE0E7
:1006F0002E9E200D1124222EF32DF0623F2E08C0D5
:100700008C3621F4832D8068382E02C0883641F45F
:10071000F70193FD859193FF81917F018111B3CF03
:10072000982F9F7D9554933028F40C5F1F4F9FE3C3
:1007300099830DC0833631F0833771F0833509F02A
:1007400059C021C0F801808189830E5F1F4F882422
:100750008394912C530113C02801F2E04F0E511CD9
:10076000F801A080B18036FE03C0692D70E002C0A0
:100770006FEF7FEFC5010E9445064C018201F32D0A
:10078000FF773F2E16C0280122E0420E511CF801CF
:10079000A080B18036FE03C0692D70E002C06FEF0B
:1007A0007FEFC5010E9433064C01F32DF0683F2E08
:1007B000820133FC1BC0822D90E088169906B0F4AC
:1007C000B60180E290E00E9450062A94F4CFF50131
:1007D00037FC859137FE81915F01B60190E00E9460
:1007E000500621102A9421E0821A91088114910464
:1007F00071F7E8C0843611F0893641F5F80137FE0B
:1008000007C060817181828193810C5F1F4F08C096
:1008100060817181072E000C880B990B0E5F1F4FB2
:10082000F32DFF763F2E97FF09C090958095709528
:1008300061957F4F8F4F9F4FF0683F2E2AE030E049
:10084000A3010E948C06882E861845C0853731F496
:10085000232D2F7EB22E2AE030E025C0932D997FE4
:10086000B92E8F36C1F018F4883579F0B5C08037CD
:1008700019F0883721F0B0C0E92FE061BE2EB4FE38
:100880000DC0FB2DF460BF2E09C034FE0AC0292F15
:100890002660B22E06C028E030E005C020E130E03E
:1008A00002C020E132E0F801B7FE07C0608171812B
:1008B000828193810C5F1F4F06C06081718180E04F
:1008C00090E00E5F1F4FA3010E948C06882E8618B1
:1008D000FB2DFF773F2E36FE0DC0232D2E7FA22E3F
:1008E000891458F434FE0BC032FC09C0832D8E7E6F
:1008F000A82E05C0B82CA32C03C0B82C01C0B92C5D
:10090000A4FE0FC0FE01E80DF11D8081803321F4AB
:100910009A2D997EA92E09C0A2FE06C0B394B39465
:1009200004C08A2D867809F0B394A3FC11C0A0FE00
:1009300006C0B21488F4280C922C9B180EC0B21476
:1009400060F4B60180E290E00E945006B394F7CFC5
:10095000B21418F42B1802C0982C212CA4FE10C03D
:10096000B60180E390E00E945006A2FE17C0A1FCF1
:1009700003C088E790E002C088E590E0B6010CC0B3
:100980008A2D867859F0A1FE02C08BE201C080E278
:10099000A7FC8DE2B60190E00E945006891438F45D
:1009A000B60180E390E00E9450069A94F7CF8A94B3
:1009B000F301E80DF11D8081B60190E00E94500620
:1009C0008110F5CF222009F442CEB60180E290E0FA
:1009D0000E9450062A94F6CFF6018681978102C0C4
:1009E0008FEF9FEF2B96E2E10C9406070F931F9376
:1009F000CF93DF93869F8001879F100D969F100DE8
:100A00001124C8010E941205EC01009729F0A801E9
:100A100060E070E00E943E06CE01DF91CF911F9111
:100A20000F9108950F931F93CF93DF938230910519
:100A300010F482E090E0E0919A00F0919B0020E0B9
:100A400030E0A0E0B0E0309719F14081518102819F
:100A5000138148175907C8F08417950769F4109750
:100A600031F012960C93129713961C9327C00093A3
:100A70009A0010939B0022C02115310519F04217EE
:100A8000530718F49A01BD01EF01DF01F801DBCF34
:100A900021153105F9F0281B390B2430310580F47C
:100AA0008A819B816115710521F0FB01938382830B
:100AB00004C090939B0080939A00FE01329644C03C
:100AC000FE01E20FF31F8193919322503109398384
:100AD00028833AC02091980030919900232B41F44B
:100AE0002091620030916300309399002093980028
:100AF00020916000309161002115310541F42DB73E
:100B00003EB74091640050916500241B350BE09185
:100B10009800F0919900E217F307A0F42E1B3F0B09
:100B20002817390778F0AC014E5F5F4F241735075F
:100B300048F04E0F5F1F50939900409398008193A7
:100B4000919302C0E0E0F0E0CF01DF91CF911F91DF
:100B50000F910895CF93DF93009709F481C0FC01B2
:100B6000329713821282A0919A00B0919B00109745
:100B700081F420813181820F931F20919800309160
:100B800099002817390751F5F0939900E0939800E0
:100B900067C0ED0120E030E0CE17DF0740F44A8166
:100BA0005B819E0141155105F1F0EA01F5CFD38338
:100BB000C28340815181840F951FC817D90759F40A
:100BC00088819981840F951F0296918380838A8101
:100BD0009B81938382832115310529F4F0939B0037
:100BE000E0939A003DC0E901FB83EA834991599162
:100BF000C40FD51FEC17FD0761F480819181840F2C
:100C0000951F0296E90199838883828193819B8352
:100C10008A83E0E0F0E012968D919C911397009703
:100C200019F0FD01DC01F7CF8D919C9111979D0189
:100C30002E5F3F4F820F931F2091980030919900B3
:100C40002817390769F4309729F410929B00109205
:100C50009A0002C013821282B0939900A093980068
:100C6000DF91CF910895FC01059061507040011013
:100C7000D8F7809590958E0F9F1F0895DC0101C0D5
:100C80006D9341505040E0F70895FC016150704071
:100C900001900110D8F7809590958E0F9F1F0895B1
:100CA0000F931F93CF93DF93FB01238121FD03C09B
:100CB0008FEF9FEF2CC022FF16C046815781248101
:100CC00035814217530744F4A081B1819D012F5F04
:100CD0003F4F318320838C93268137812F5F3F4F95
:100CE0003783268314C08B01EC01FB010084F1855E
:100CF000E02D0995892BE1F6D80116968D919C91EE
:100D00001797019617969C938E931697CE01DF91B5
:100D1000CF911F910F910895FA01AA27283051F120
:100D2000203181F1E8946F936E7F6E5F7F4F8F4F1C
:100D30009F4FAF4FB1E03ED0B4E03CD0670F781F7B
:100D4000891F9A1FA11D680F791F8A1F911DA11D60
:100D50006A0F711D811D911DA11D20D009F4689499
:100D60003F912AE0269F11243019305D3193DEF641
:100D7000CF010895462F4770405D4193B3E00FD0F7
:100D8000C9F7F6CF462F4F70405D4A3318F0495DE2
:100D900031FD4052419302D0A9F7EACFB4E0A695C5
:100DA0009795879577956795BA95C9F700976105E7
:100DB000710508959B01AC010A2E0694579547953D
:100DC00037952795BA95C9F7620F731F841F951F32
:100DD000A01D08952F923F924F925F926F927F9243
:100DE0008F929F92AF92BF92CF92DF92EF92FF923B
:100DF0000F931F93CF93DF93CDB7DEB7CA1BDB0BE7
:100E00000FB6F894DEBF0FBECDBF09942A8839888B
:100E100048885F846E847D848C849B84AA84B98492
:100E2000C884DF80EE80FD800C811B81AA81B9819E
:100E3000CE0FD11D0FB6F894DEBF0FBECDBFED01B2
:060E40000895F894FFCFB5
:100E460000009C00200052454144590064757479A5
:100E5600206572726F7200536572766F2025753A3F
:100E6600257500736572766F206572726F72000069
:00000001FF
